:020000021000EC
:10F87C00109104021EBD1DB517FFFDCF1EB51093D0
:10F88C0005020895289815E0109304020E943EFC8E
:10F89C000E943EFC109105021170103010E009F42A
:10F8AC001FEF112311F40C944EFC289A0895229703
:10F8BC000E9448FC0A811B8101501040102F1983B3
:10F8CC003F812E811D810C8100930602109307024B
:10F8DC00209308023093090228981BE0109304022D
:10F8EC000E943EFC10910802109304020E943EFC00
:10F8FC0010910702109304020E943EFC1091060224
:10F90C00109304020E943EFC10E0109304020E942B
:10F91C003EFCFE01FA93EA9310E01083EF93FF9301
:10F92C001B81FF91EF911A931081088101171FEF32
:10F93C0008F01127112311F00C94BDFC0E943EFC21
:10F94C00E0E0F0E3EF93FF931B81012F1127FF9170
:10F95C00EF91E00FF11F109105021193E981FA81EB
:10F96C00108113951083112311F00C949BFC23969A
:10F97C00289A089510E517B91FE818B91BEB14B9AC
:10F98C001FE915B91CEF1AB91CE01BB91CE51CBD0D
:10F99C0010E01DBD10E000E000930A0210930B0272
:10F9AC0010E010930C0200E010E02EE330E0009326
:10F9BC001102109312022093130230931402F89444
:10F9CC00E0E0F0E0F0930101E093000110E010930F
:10F9DC00020167FC7894E5E1F2E0FA93EA9310E017
:10F9EC0000E01183008311E007EF1A930A93A081C2
:10F9FC00B18128813981B31709F4A21710E011F0F5
:10FA0C0008F01FEF112311F00C94E0FDCF93DF935E
:10FA1C0000911102109112022091130230911402E4
:10FA2C003A932A931A930A9311E000E01A930A93DB
:10FA3C000E945DFCDF91CF9100910A0210910B02A4
:10FA4C00009300011093010110910C02109302011C
:10FA5C000E9495FE00910A0210910B020093000186
:10FA6C0010930101E7E1F2E0FA93EA9310E01083BE
:10FA7C001FE71A931081088101171FEF08F0112757
:10FA8C00112311F00C947AFDE0E0F0E3EF93FF9377
:10FA9C0010911702012F1127000F111FFF91EF91E9
:10FAAC00E00FF11F019111910E94AAFEA0910D028D
:10FABC00B0910E02E0910F02F0911002119608F431
:10FACC003196A0930D02B0930E02E0930F02F093C7
:10FADC00100211E01BBFE981FA811081139510838C
:10FAEC00112311F00C9441FD239600910A02109100
:10FAFC000B0200930001109301010E94C3FEA09120
:10FB0C000A02B0910B02A050BF4FA0930A02B0930F
:10FB1C000B0200910A0210910B02103009F4003014
:10FB2C0010E009F41FEF112311F40C94A2FD1091B5
:10FB3C000C02139510930C02A0911102B0911202B9
:10FB4C00E0911302F0911402A050BF4FEF4FFF4F02
:10FB5C00A0931102B0931202E0931302F0931402DB
:10FB6C0011E01BBF00911502109116020770107066
:10FB7C00103009F4003010E009F41FEF112311F4D8
:10FB8C000C94D3FD11275A991FEF1095E89411236B
:10FB9C0009F068941BB112F91BB9EA81FB81A081B1
:10FBAC00B1811196A083B183BB2311F4AA2311F068
:10FBBC000C94FFFC24960E9485FE0000FECF11E001
:10FBCC001BBFF89412E007E91EBF0DBF1127E0E13F
:10FBDC00F0E0A0E0B0E031960000319711F01D93F9
:10FBEC00FCCFA0E0B1E0E0E0F0E43196000031970A
:10FBFC0011F01D93FCCFCAE2D3E0F8941FE7612209
:10FC0C0013E81093030216BD14E015BD11E0109318
:10FC1C006E006624772405B7036005BF0E7F05BF11
:10FC2C000C94C0FCEF93FF930F931F931FB71F937C
:10FC3C001091030206B5100F16BD1FE7612210E8E4
:10FC4C00612A1F911FBF1F910F91FF91EF91189582
:10FC5C005F904F9010939802009399021FB71F93D7
:10FC6C0030939A0220939B02B0939C02A0939D0226
:10FC7C00F0939E02E0939F025093A0024093A10246
:10FC8C007093A2026093A3026092A4020092A50258
:10FC9C009093A6028093A7021092A8023092A90218
:10FCAC002092AA02E89467F8F20109941091980244
:10FCBC000091990230919A0220919B02B0919C0282
:10FCCC00A0919D02F0919E02E0919F025091A002A2
:10FCDC004091A1027091A2026091A3026090A402D3
:10FCEC000090A5029091A6028091A7021090A80204
:10FCFC003090A9022090AA02689467F80895F894AD
:10FD0C0005B70D7F016005BF0E7F05BF0C94000089
:10FD1C002150304018F011911D93FACF0895F894AA
:10FD2C00F0910101E0910001109102011BBF3BD049
:10FD3C0013E017BFE89537D011E117BFE89501E044
:10FD4C000BBF67FC78940895F894002E112EF09157
:10FD5C000101E0910001EE7F109102011BBF23D045
:10FD6C0011E017BFE8953296F0930101E093000182
:10FD7C0001E00BBF67FC78940895F894F0910101B1
:10FD8C00E0910001E070109102011BBF0CD015E056
:10FD9C0017BFE89508D011E117BFE89501E00BBF3C
:10FDAC0067FC78940895F999FECF17B710FDFBCF37
:04FDBC0008951895F9
:10F800000C94E5FD0C94DFFE0C94DFFE0C94DFFEFF
:10F810000C94DFFE0C94DFFE0C94DFFE0C94DFFEF4
:10F820000C94DFFE0C94DFFE0C94DFFE0C94DFFEE4
:10F830000C94DFFE0C94DFFE0C94DFFE0C94DFFED4
:10F840000C94DFFE0C94DFFE0C9418FE0C94DFFE8B
:10F850000C94DFFE0C94DFFE0C94DFFE0C94DFFEB4
:10F860000C94DFFE0C94DFFE0C94DFFE0C94DFFEA4
:0CF870000C94DFFE0C94DFFE0C94DFFE15
:00000001FF
