:10005800219710E01883212F10E001E00E94DDE3D2
:1000680029813A81131709F4021718F41881139596
:10007800F1CF188108950091B6051091B705103099
:1000880009F40030C9F0E091B605F091B705319652
:1000980001911191219130813A932A931A930A93ED
:1000A8000FEC11E01A930A9328D0269610E000E08E
:1000B8000093B6051093B7050895CF93DF93DBDF60
:1000C800DF91CF91009127051091280520912905EE
:1000D80030912A05D801F9013D812C811B810A81C3
:1000E8003F1729F42E1719F41B1709F40A1711F4EE
:1000F8001FEF02C00E9401DC08950E943FDC1FEF41
:1001080008951091B105123009F03FC00091E20541
:100118001091E305332722273A932A931A930A93D7
:100128000FEC11E01A930A93C8DF2696EFECF1E082
:100138000191119121913081313429F4213619F43A
:10014800123509F4023509F1E3EBF3E0019111915D
:1001580021913081313629F4213419F4123709F408
:10016800023799F0E3EBF3E001911191219130818D
:100178003D3429F4203919F4183509F40B3E29F0D7
:100188000FEF1FEF2FEF3FEF7EC01C81109539F165
:100198001D81103081F41091B105123019F4E7EB8C
:1001A800F3E00FC00091E4051091E5052091E60504
:1001B8003091E70568C01091B105123039F4EBEBC6
:1001C800F3E001911191219130815DC00091E80522
:1001D8001091E9052091EA053091EB0554C01D8185
:1001E8001030F9F41091B105123059F4E7EBF3E04F
:1001F8003B812A81198108810193119321933083CE
:100208000CC03B812A81198108810093E405109371
:10021800E5052093E6053093E7051FEF1093D20517
:100228001BC01091B105123059F4EBEBF3E03B81A0
:100238002A811981088101931193219330830CC07D
:100248003B812A81198108810093E8051093E9050B
:100258002093EA053093EB051091B10512301FEF9A
:1002680009F010E081F40091E2051091E3053327CD
:1002780022273A932A931A930A930FEC11E01A93C0
:100288000A933BDF269608951091D2051123C9F1F0
:100298001091B105123051F410E01A931A931A9381
:1002A8001A931A931A932DDF269608C00091E40535
:1002B8001091E5052091E6053091E705A881B981FF
:1002C800EA81FB814C81442329F00A0F1B1F2E1F52
:1002D8003F1F0DC00A1B1B0B2E0B3F0B40F4015098
:1002E800104020403040209530951095009540E012
:1002F8004A934FEF4A933A932A931A930A9301DF4A
:1003080026960895679710E01093B10500E020E065
:1003180030E00093710510937205209373053093B4
:1003280074050093E2051093E3050FEF1FEF2FEF1D
:100338003FEF009327051093280520932905309354
:100348002A0500E010E020E030E03A932A931A935F
:100358000A930FEC11E01A930A93AFDE26961091D8
:10036800CF011E8B193E10E009F01FEF1F931E8965
:100378001B3E10E009F01FEF0F91102309F44DC048
:1003880010919103143039F0163029F01B3019F010
:100398001C3009F01E3011F012E03BC015E0E1E717
:1003A8001D8710919503FD851193FD87EC871091AA
:1003B80096031193FD87EC87109197031193FD879E
:1003C800EC87109198031193FD87EC8700917105D4
:1003D8001091720520917305309174053A932A9310
:1003E8001A930A930FEC11E01A930A9366DE269685
:1003F8001091CF011E8B193E10E009F01FEF1F93DB
:100408001E891B3E10E009F01FEF0F91102329F001
:1004180011E01093CE0110E039C2EFECF1E0FA934D
:10042800EA93E881F9813B96019110810093800558
:10043800109381051A930A930BDE23961093D30524
:100448000091800510918105D80120E230E0E89400
:1004580065F80E94A3E20093820510938305E88162
:10046800F9817096108110937705E881F9813D969E
:1004780000810093880511271A930A93E9DD2396D2
:100488001093D7052091710530917205E881F981A3
:100498003E9601911081020F131F0093750510936A
:1004A8007605E881F98171960191108100937C05A8
:1004B80010937D05009180052091D7051091810545
:1004C8000E94DDE30093D8051093D90500917C05BF
:1004D80010917D05103009F4003009F061C012E078
:1004E8001093B10514E01093C90512E01093CA05E2
:1004F800E3EFF1E0F98BE88B0081118122813381F0
:100508003D872C871B870A87009378051093790508
:10051800EBEF00811181228133810093DE05109376
:10052800DF052093E0053093E105209171053091B6
:1005380072050091FF0110910002020F131F009332
:10054800E2051093E30500917505109176050F9368
:100558001F933D852C851B850A850F931F932F9329
:100568003F9300917705112733272227E89465F8F0
:100578000E94D2E23F912F91020F131F00937E0534
:1005880010937F0500937A0510937B0517E010936D
:10059800CF0510E000E80093DC051093DD055FC08F
:1005A80011E01093B10512E01093C90511E0109302
:1005B800CA05E881F9817696019110810093780542
:1005C80010937905A0917705BB27E89465F80E94F8
:1005D80081E23091760520917505020F131F009373
:1005E8007A0510937B050F931F9300917C0510915A
:1005F8007D05A0E2E89465F80E9481E22091D30588
:100608000E94C1E33F912F91020F131F00937E05B3
:1006180010937F05A0917C05B0917D05009182051E
:1006280010918305E89465F80E94A2E200938E0574
:1006380010938F0518E01093CF0511E000E00093A8
:10064800DC051093DD050FEF1FEF2FEF3FEF009351
:10065800E4051093E5052093E6053093E70510912E
:10066800880511501093D6050091800510918105D9
:10067800015010400093D4051093D505E881F98105
:10068800739601911081103009F4003041F0E8812F
:10069800F9817396019110813327222707C0E881D9
:1006A800F981B096019111912191308100938405CF
:1006B80010938505209386053093870500917E0564
:1006C80010917F050093B4051093B505009184053A
:1006D80010918505EBE00E94CDE3EAE00E94E9E392
:1006E8000093690510936A0520936B0530936C0598
:1006F8000091840510918505E881F9813E96A191C4
:10070800B081FF27EE27A150B040E040F040E095CF
:10071800F095B095A0953091870520918605A00F9A
:10072800B11FE21FF31F0091780510917905000FA2
:10073800111F3327222701501040204030402095B8
:100748003095109500950A0F1B1F2E1F3F1FD801CB
:100758002F93F32F00917C0510917D0533272227D5
:10076800E4E00E94CDE30150104020403040209545
:10077800309510950095EF910A0F1B1F2E1F3F1FF4
:10078800E091D7050E94CDE30093890510938A056F
:1007980020938B0530938C05229610E01A9310E075
:1007A8001A9300E010E020E030E03A932A931A937D
:1007B8000A93A7DC26960F931F932F933F930091DC
:1007C800890510918A0520918B0530918C05D801F7
:1007D800F9013F912F911F910F913F1729F42E177F
:1007E80019F41B1709F40A1720F00E9466122496C0
:1007F80003C01FEF1093D205A5E2B4E010E0E6E0D5
:10080800F0E031960000319711F01D93FCCFABE278
:10081800B4E010E0ECEFF0E031960000319711F011
:100828001D93FCCF00917A0510917B053327222771
:10083800009338051093390520933A0530933B050A
:10084800ECE3F5E0EF93FF933196FA93EA931CE01B
:100858001A9317EF61221FEB61221CE50E941EE22A
:100868001CE00881101BFF91EF911083239610E084
:100878001093CE0111E01093970510E000E000936B
:10088800B6051093B7050E94BBDC1FEF08952091B1
:100898007505309176050091900510919105020F2C
:1008A800131F332722273A932A931A930A930FEC9C
:1008B80011E01A930A9301DC269608952497209153
:1008C8007505309176050091900510919105020FFC
:1008D800131F332722273B832A83198308833A93DC
:1008E8002A931A930A930FEC11E01A930A9305DCE2
:1008F8002696109177051230C1F4FB81EA81B981FF
:10090800A8810091780510917905332722270A0FCD
:100918001B1F2E1F3F1F3A932A931A930A930FEC1B
:1009280011E01A930A93E9DB269608953B812A8100
:1009380019810881E091CA050E94E9E3F80136951A
:10094800279517951093900520939105EF7FF170E7
:10095800E0939205F093930508953B812A811981CC
:1009680008813A932A931A930A93E0DF24968FDF3B
:10097800EFECF1E00091920510919305E00FF11F63
:100988000191119121913191A091B105A23019F0F5
:100998002227332708953F7008953F812E811D81B6
:1009A8000C813A932A931A930A93C0DF24966FDF37
:1009B800EFECF1E00091920510919305E00FF11F23
:1009C8001981088101931193A091B105A23021F4F6
:1009D8003B812A812193308371DF249608952B97D8
:1009E80010E01093D10553DF2091780530917905F7
:1009F8001091910500919005131709F4021708F05A
:100A0800B1C00091900533272227E091CF051091BE
:100A180091050E94E9E33B832A83198308830091A7
:100A2800920510919305123009F4003008F07EC049
:100A3800EFECF1E00091920510919305E00FF11FA2
:100A4800FE83ED831091B105103059F4ED81FE81DC
:100A580000811181103009F4003010E091F41FEF8B
:100A680010C0ED81FE8100811181228133813030F7
:100A780029F4203019F4103009F4003010E009F49A
:100A88001FEF1C83112309F443C06091C905772720
:100A9800A0919205B0919305A60FB71FA093920558
:100AA800B0939305FB81EA81B981A88100919205F1
:100AB8002091CA05109193050E94C1E3332722278C
:100AC8000A0F1B1F2E1F3F1F0150104020403040AF
:100AD8003A87298718870F830F930091890510910A
:100AE8008A0520918B0530918C05D801F9013A854A
:100AF800298518850F913F1729F42E1719F41B170C
:100B080009F40A1778F53A85298518850F8131C0C7
:100B18006091C9057727A0919205B0919305A60F1A
:100B2800B71FA0939205B093930579CFA091900534
:100B3800B09191051196A0939005B09391052091DD
:100B4800780530917905109191050091900513175A
:100B580009F4021738F410E000E0009392051093AE
:100B6800930541CF1FEF1093D1050FEF1FEF2FEF24
:100B78003FEF089510E000E0009390051093910571
:100B880000939205109393051FEF1093D20510E080
:100B98001A9301E010E020E030E03A932A931A9388
:100BA8000A9372DB25961BDF2B96089500917E052C
:100BB80010917F0533272227D801F9013B812A812B
:100BC800198108813F1729F42E1719F41B1709F406
:100BD8000A1710E008F01FEF1F933B812A81B981A3
:100BE800A881F90130918705209186051091850526
:100BF800009184053F1729F42E1719F41B1709F4DF
:100C08000A1710E008F01FEF0F911023F9F0FB818D
:100C1800EA81B981A88100917E0510917F0533276B
:100C280022270150104020403040209530951095E3
:100C380000950A0F1B1F2E1F3F1FE091D7050E942A
:100C4800CDE30E5F1F4F2F4F3F4F04C000E010E071
:100C580020E030E008950091890510918A052091DF
:100C68008B0530918C05D801F9013B812A811981C6
:100C780008813F1729F42E1719F41B1709F40A17CE
:100C88001FEF10F009F011271F933B812A8119816A
:100C98000881303029F4203019F4103009F401307B
:100CA80010E011F008F01FEF0F911023C9F0A09188
:100CB8007E05B0917F05FF2722272F933B812A814C
:100CC800198108810250104020403040E091D7053A
:100CD8000E94E9E3EF910A0F1B1F2E1F3F1F04C05C
:100CE8000FEF1FEF2FEF3FEF08950881083F78F0CF
:100CF80019811F3F61F41091B105113031F01B814A
:100D08001F3028F00A810F3F11F41FEF01C010E0D7
:100D1800089508810F3F79F419811F3F61F41091FC
:100D2800B105113031F01B811F3028F00A810F3FC7
:100D380011F41FEF01C010E00895229710E0188306
:100D480011E01983193028F5FE013496098111271D
:100D580001501040E00FF11F10811032D1F00881CE
:100D680003950883EA81FB811127E00FF11FEF93B8
:100D7800FF93FE013496098101501040E00FF11FE6
:100D88001081FF91EF911083198113951983112315
:100D9800C9F61C85103299F1088103950883EA8108
:100DA800FB811127E00FF11F1EE2108319E0198360
:100DB8001C3028F5FE013496098111270150104096
:100DC800E00FF11F10811032D1F0088103950883DC
:100DD800EA81FB811127E00FF11FEF93FF93FE01DA
:100DE8003496098101501040E00FF11F1081FF91E6
:100DF800EF9110831981139519831123C9F6EA819C
:100E0800FB81188110830895239711E019831A83B1
:100E1800FE01359609811127E00FF11F10811E325E
:100E280091F41A81193008F093C0EB81FC810A8192
:100E3800112701501040E00FF11F10E210831A81B2
:100E480013951A83EECFFE01359609811127E00F1D
:100E5800F11F10811A3259F51A89109509F05AC0F4
:100E68001A81193088F41A81193000F5EB81FC8158
:100E78000A81112701501040E00FF11F1FE3108372
:100E88001A8113951A83EFCF1A811C3070F4EB8105
:100E9800FC810A81112701501040E00FF11F1FE368
:100EA80010831A8113951A83EFCF6FC051C0FE01CA
:100EB800359609811127E00FF11F10811F3369F45E
:100EC8001A89109539F5EB81FC810A8111270150A7
:100ED8001040E00FF11F1FE337C0FE01359609816E
:100EE8001127E00FF11F10811C3299F010F4103017
:100EF80048F41E3271F01F3261F0103451F020F4C2
:100F08001A3310F0189405C01F3F19F01F3708F066
:100F1800189411F410E03AC0EB81FC810A81112782
:100F280001501040E00FF11FEF93FF93FE0135963B
:100F380009811127E00FF11F1081113618F01B37B6
:100F480008F41052FF91EF9110831A8113951A83B8
:100F58000981039509831D81011709F028F41A8175
:100F68001B3009F008F454CF1A811C3070F4EB815F
:100F7800FC810A81112701501040E00FF11F10E297
:100F880010831A8113951A83EFCF1FEF08952197C5
:100F980011E018831C3090F5FE013C96088111275A
:100FA80001501040E00FF11F1081113618F01B3767
:100FB80008F410521F93FE01319608811127015041
:100FC8001040E00FF11F1081113618F01B3708F49C
:100FD80010520F91011769F0FE013C960881112704
:100FE80001501040E00FF11F10811F3311F010E085
:100FF80006C0188113951883112361F61FEF089511
:1010080011E0109397053B812A811981088100938B
:1010180098051093990520939A0530939B050F9393
:101028001F932F933F9300917A0510917B053327E7
:101038002227D801F9013F912F911F910F913F1756
:1010480029F42E1719F41B1709F40A1710E009F4EC
:101058001FEF10939605112309F01FEF1F931091AE
:10106800B105123010E009F41FEF0F91102381F041
:101078000091DE051091DF052091E0053091E10532
:1010880000939C0510939D0520939E0530939F0522
:1010980010919605112309F01FEF109511F1009199
:1010A80098051091990520919A0530919B053A93DE
:1010B8002A931A930A937ADD249600939C05109339
:1010C8009D0520939E0530939F0500E010E020E0E9
:1010D80030E00093A0051093A1052093A20530935A
:1010E800A30510E000E0009394051093950508957A
:1010F80000919705039500939705109182050117B4
:1011080009F008F4C7C011E010939705A091940561
:10111800B09195051196A0939405B09395051091FB
:101128009605112309F01FEF1F931091B105113097
:1011380010E009F41FEF0F91102319F120918E058B
:1011480030918F051091950500919405131709F4B6
:10115800021709F487C0A0919805B0919905E0910C
:101168009A05F0919B05119608F43196A09398057D
:10117800B0939905E0939A05F0939B0511E01BBF86
:1011880089C0A0919805B0919905E0919A05F091D0
:101198009B05119608F43196A0939805B09399058C
:1011A800E0939A05F0939B0511E01BBF00917E0523
:1011B80010917F05332722270150104020403040EE
:1011C80020953095109500950A0F1B1F2E1F3F1F65
:1011D800D801F9010091D6051127332722270A23C0
:1011E8001B232E233F23303029F4203019F41030EC
:1011F80009F4003009F04EC000919C0510919D053E
:1012080020919E0530919F053A932A931A930A9349
:101218006CDD2496112331F500919C0510919D05F4
:1012280020919E0530919F050093A0051093A1057C
:101238002093A2053093A3053A932A931A930A930D
:101248008CDB249600939C0510939D0520939E05A6
:1012580030939F053A932A931A930A9346DD24966E
:10126800112311F010E017C000919C0510919D0505
:1012780020919E0530919F053A932A931A930A93D9
:10128800EADC2496009398051093990520939A0513
:1012980030939B051FEF08950091980510919905CB
:1012A80020919A0530919B053A932A931A930A93B1
:1012B8000FEC11E01A930A930E946100269610958C
:1012C80029F015E01093CE0110E016C010E010933D
:1012D800CE010091970501501040A0E2B0E0E894DB
:1012E80065F80E9481E2F1E0EFECE00FF11F108158
:1012F800103010E009F01FEF089523971C8911237F
:1013080051F03B892A89198908893A932A931A93B3
:101318000A9376DE2496C0DF112309F477C0FE0114
:101328003196EF93FF9300919705112701501040D4
:10133800A0E2B0E0E89465F80E9481E2F1E0EFEC09
:10134800E00FF11F8F01FF91EF9101931083E98165
:10135800FA813B9610811F3010E009F01FEF1F93B0
:10136800E981FA817A9601911081103009F40030F0
:1013780010E009F01FEF0F91102309F443C00B810F
:1013880010E0011751F0E981FA813B9600811B8139
:10139800011710E061F01FEF0AC0E981FA813B965E
:1013A80000811C811023011710E009F41FEF188336
:1013B800112341F1E981FA811081153019F01E32AB
:1013C80009F0153EF9F0E981FA8110811F3F19F003
:1013D8001F3708F01894B1F0FE0135962B972BE0D3
:1013E80030E0DE010E9474DDEC85FD852B972BE053
:1013F80030E0DE010E9474DDCADD6796112311F02A
:101408001FEF05C075DE109509F485CF10E008952B
:101418001FEF1A93E981FA81F196019111912191B7
:1014280030813A932A931A930A93ED81FE8171963B
:101438002B972BE030E0DE010E9474DD10E01A9358
:1014480010E11A935ADF65961123C1F1E881F981F9
:101458007196EF93FF930091970511270150104063
:10146800A0E2B0E0E89465F80E9481E2F1E0EFECD8
:10147800E00FF11FBF91AF9120E230E00E9474DDD0
:101488001FEF1093D005E881F981B596019110817D
:1014980033272227E0E10E94E9E3D8012F933F9305
:1014A800E881F981BB960191108133272227FF91AA
:1014B800EF910A2B1B2B2E2B3F2B04C000E010E0D2
:1014C80020E030E0089529973C852B851A85098509
:1014D80038872F831E830D8300E010E020E030E082
:1014E8003C832B831A83098338852F811E810D81C4
:1014F8003A932A931A930A9330DA249638872F83DB
:101508001E830D83303029F4203019F4103009F48B
:10151800003079F1BCD9EFECF1E00091920510911F
:101528009305E00FF11F1127119311930091B10555
:10153800023011F411931083C1D92496FE0131961B
:10154800A981BA818B819C81119608F40196A083A8
:10155800B1838283938338852F811E810D813A93CD
:101568002A931A930A93C1DB24961883112309F44A
:10157800BBCF1FEF1093D2051A933D812C811B819D
:101588000A813A932A931A930A930E94480125964E
:1015980008952197A981BA81E6ECFAEC689464F879
:1015A8000E94F5E151F1ABE2B5E010E2EBE0F0E0CA
:1015B80031960000319711F01D93FCCF1CE5012FE7
:1015C800E981FA8161E00E9419DF1883103081F403
:1015D800E981FA81108118831B3009F070F4E981E0
:1015E800FA813196EF93FF93EBE2F5E0088110C0A2
:1015F800188111501B3019F010F010E01BC0E98160
:10160800FA813196EF93FF93EBE2F5E00881015000
:101618001127DF01FF91EF9198010E9474DDE981A4
:10162800FA81EF93FF9311E01F93188170E00E94F5
:10163800C9DD1FEF0895259738852F811E810D81FB
:101648003A932A931A930A9306DB24963B832A83B8
:10165800198308833F3F29F42F3F19F41F3F09F4EA
:101668000F3F11F410E02BC0CF93DF930E943F008F
:10167800DF91CF91109188051C833B812A811981C4
:1016880008813A932A931A930A930091880511279F
:10169800332722273A932A931A930A930E94C21B4C
:1016A80029961C81103051F0CF93DF930E94471C7C
:1016B800DF91CF911C811A951C83F3CF1FEF0895FA
:1016C800249710E21093A505E4EAF5E0EF93FF9361
:1016D8003196FA93EA931CE01A9317EF61221FEBF5
:1016E8006122EF81F8850E945CDF1CE00881101BF5
:1016F800FF91EF91108323961091A405113010E00B
:1017080011F008F01FEF1F93E4EAF5E000811127BC
:10171800E00FF11F10811C3510E009F41FEF0F9145
:10172800102341F0E4EAF5E0108111501C3008F074
:101738001CE010831091A5051C3509F418C1A4EA12
:10174800B5E0E6ECFAEC689464F80E94F5E1C9F4B7
:10175800E4EAF5E0EF93FF933196FA93EA931CE0FD
:101768001A9317EF61221FEB6122ECE3F5E00E9468
:101778005CDF1CE00881101BFF91EF91108323961A
:10178800F6C0ACE3B5E0E7ECFAEC689464F80E94C4
:10179800F5E199F5A4EAB5E0E6ECFAEC689464F8AA
:1017A8000E94F5E110E009F01FEF1F931091A505C5
:1017B8001E3210E009F41FEF0F91102351F0E4EAF4
:1017C800F5E0EF93FF9311E01F9370E00E94C9DDED
:1017D800E1CF1091A5051C3509F4C9C0E7ECFAEC76
:1017E800EF93FF93E4EAF5E0EF93FF931CE01F9378
:1017F80011E092E00E940ADEBAC010E01B83A4EA5E
:10180800B5E0E6ECFAEC689464F80E94F5E110E0C3
:1018180009F01FEF1F931091A5051E3210E009F47F
:101828001FEF0F91102359F0E4EAF5E0EF93FF93CF
:1018380011E01F9370E00E94C9DD1FEFDFCF1B810D
:10184800112309F479C010913C051A83103071F006
:10185800ECE3F5E00A811127E00FF11F10811C3538
:1018680029F01A811A951A831F3F81F71A811230BD
:1018780010F5A4EAB5E0E6ECFAEC689464F80E9486
:10188800F5E109F074C0E4EAF5E0EF93FF933196CF
:10189800FA93EA931CE01A9317EF61221FEB612277
:1018A8001CE50E941EE21CE00881101BFF91EF91CD
:1018B800108323965CC01A811A951A830091A40597
:1018C800100F188311E019831A811A931A8108815D
:1018D800011798F0E9ECFAECEF93FF93E4EAF5E0EE
:1018E800EF93FF931CE01F9311E092E00E940ADE41
:1018F8001A8113951A83112351F72196E4EAF5E02A
:10190800EF93FF933196FA93EA931CE01A9317EF3B
:1019180061221FEB6122ECE3F5E001E01D810E94EA
:101928003DDF1CE00881101BFF91EF911083239687
:1019380018811093A4051BC0E7ECFAECEF93FF9312
:10194800E4EAF5E0EF93FF931CE01F9311E092E0C7
:101958000E940ADEECE3F5E0EF93FF93E4EAEF93ED
:10196800FF931CE01F9311E090E00E940ADE1091A3
:10197800A405113010E011F008F01FEF1F93E4EAFE
:10198800F5E000811127E00FF11F10811C3510E0F0
:1019980009F41FEF0F91102341F0E4EAF5E01081FC
:1019A80011501C3008F01CE0108308952697E4EAD3
:1019B800F5E0EF93FF933196FA93EA931CE01A93BC
:1019C80017EF61221FEB6122E985FA850E945CDF2F
:1019D8001CE00881101BFF91EF9110832396A4EA65
:1019E800B5E0E6ECFAEC689464F80E94F5E119F1C8
:1019F8001091A5051C3539F400917A0510917B05E5
:101A08003327222720C01091A5051E32A1F400918A
:101A18007A0510917B05332722273D832C831B836E
:101A28000A83CF93DF93EE81FF81FA93EA9348DE2E
:101A3800DF91CF910CC000913805109139052091A4
:101A48003A0530913B053D832C831B830A83109113
:101A5800A405103010E009F01FEF1F931091A505A1
:101A68001C3510E009F41FEF0F91102349F0E4EA48
:101A7800F5E0EF93FF9311E01F9370E00E94C9DD3A
:101A88001091A405103010E009F01FEF1F93E4EA4D
:101A9800F5E000811127E00FF11F10811C3510E0DF
:101AA80009F41FEF0F91102341F0E4EAF5E01081EB
:101AB80011501C3008F01CE01083CF93DF93E4EA48
:101AC800F5E0FA93EA9365DDDF91CF91112309F4EC
:101AD80062C01FEF1A933E812D811C810B813A93BE
:101AE8002A931A930A93EBE2F5E02B972BE030E068
:101AF800DE010E9474DD10E11A9310E01A93FDDBF9
:101B08006596109529F000E010E020E030E047C02D
:101B1800CF93DF9300919705112701501040A0E261
:101B2800B0E0E89465F80E9481E2F1E0EFECE00FA4
:101B3800F11F74960191108133272227E0E10E945A
:101B4800E9E30F931F932F933F9300919705112774
:101B580001501040E89465F80E9481E2F1E0EFEC52
:101B6800E00FF11F7A960191108133272227FF9108
:101B7800EF91BF91AF910A2B1B2B2E2B3F2B3A9342
:101B88002A931A930A9367D8DF91CF913D832C83C8
:101B98001B830A8392CF3D812C811B810A81089582
:101BA800E881F9813596EF93FF93E881F981B5963D
:101BB8000191108133272227E0E10E94E9E3D8014F
:101BC8002F933F93E881F981BB96019110813327C8
:101BD8002227FF91EF910A2B1B2B2E2B3F2BFF91D6
:101BE800EF910193119321933083E881F981319624
:101BF800EF93FF93E881F981359601911191219135
:101C080030813A932A931A930A9325D82496FF9100
:101C1800EF910193119321933083E881F9813196F3
:101C280001911191219130813F3F29F42F3F19F4FF
:101C38001F3F09F40F3F10E009F01FEF08952197A7
:101C4800E981FA813196A081B181828193811196CF
:101C580008F40196A083B18382839383E981FA8192
:101C680031960191119121913081F901A0917E0560
:101C7800B0917F0533272227A150B0402040304043
:101C880020953095B095A095A00FB11F2E1F3F1F2E
:101C9800F9010091D6051127332722270A231B2390
:101CA8002E233F23303029F4203019F4103009F462
:101CB800003009F054C0E981FA81359601911191FB
:101CC800219130813A932A931A930A930E947906B4
:101CD8002496112311F010E043C0E981FA8135966A
:101CE800EF93FF93E981FA81359601911191219142
:101CF80030813A932A931A930A930E94B104249646
:101D0800FF91EF910193119321933083E981FA8137
:101D1800359601911191219130813A932A931A9322
:101D28000A930E94790624961095C9F0E981FA81F0
:101D38003196EF93FF93E981FA81359601911191DC
:101D4800219130813A932A931A930A930E942F067D
:101D58002496FF91EF9101931193219330831FEF04
:101D68000895E881F9817C96008110E1011709F452
:101D7800B2C0CF93DF930E943F00DF91CF911FEF56
:101D88001A93E981FA81F19601911191219130819B
:101D98003A932A931A930A93ED81FE8171962B97B1
:101DA8002BE030E0DE010E9474DD10E01A9310E1B0
:101DB8001A93A3DA65961123C9F0009197051127A4
:101DC80001501040A0E2B0E0E89465F80E9481E27A
:101DD800F1E0EFECE00FF11F3B961081117011302C
:101DE80021F417E01093CE0176C0C3C0E881F981D1
:101DF800F19601911191219130813A932A931A9386
:101E08000A93FED8249648DA112309F4B2C0009147
:101E18009705112701501040A0E2B0E0E89465F85A
:101E28000E9481E2F1E0EFECE00FF11F1081153024
:101E380009F0153E09F4B0C05BD9109521F3109153
:101E48009605112309F01FEF112309F044C00091F2
:101E58009C0510919D0520919E0530919F053A9310
:101E68002A931A930A930E948D062496112399F5B2
:101E780000919C0510919D0520919E0530919F052C
:101E88003A932A931A930A930E9479062496112367
:101E980091F00E94F3042B9600939C0510939D05E6
:101EA80020939E0530939F051091D105112309F0C9
:101EB8001FEF112381F400919C0510919D0520913D
:101EC8009E0530919F053A932A931A930A93B3DBA0
:101ED8002996109511F010E089C00091A005109185
:101EE800A1052091A2053091A3053A932A931A934C
:101EF8000A9300919C0510919D0520919E053091B3
:101F08009F053A932A931A930A930E94D10428961C
:101F180000919C0510919D0520919E0530919F058B
:101F28003A932A931A930A930FEF1FEF2FEF3FEF7D
:101F38003A932A931A930A930E94D10428960091FF
:101F48009C0510919D0520919E0530919F053A931F
:101F58002A931A930A930E942F06249600939805B1
:101F68001093990520939A0530939B0511E01093DF
:101F78009705009198051091990520919A0530913F
:101F88009B053A932A931A930A930FEC11E01A933C
:101F98000A930E9461002696009197051127015027
:101FA8001040A0E2B0E0E89465F80E9481E2B1E058
:101FB800AFECA00FB11FE881F981719620E230E003
:101FC8000E9474DD009198051091990520919A0559
:101FD80030919B053A932A931A930A930FEC11E0D8
:101FE8001A930A930E94810026961FEF0895EA81AA
:101FF800FB81F59601911081103011F4003021F029
:10200800103029F4013019F40881198126C01030E4
:1020180029F4023019F40881198111C0103029F40B
:10202800043019F40881198108C0103059F40830B7
:1020380049F40881198116950795169507951695FF
:1020480007950BC0A881B981EA81FB81F5960191BA
:102058001081E89465F80E94A2E208952297EC8125
:10206800FD81F59601911081198308830A811B81EE
:10207800103029F4003019F410E000E02AC01030C4
:1020880029F4013019F40881198123C0103029F48A
:10209800023019F40881198111C0103029F4043074
:1020A80019F40881198108C0103059F4083049F42E
:1020B80008811981000F111F000F111F000F111F38
:1020C80008C0A881B9810A811B81E89465F80E943B
:1020D80081E20895229710E01A9310E01A9300E025
:1020E80010E020E030E03A932A931A930A930E9472
:1020F800850026960093EC051093ED052093EE05D8
:102108003093EF050F931F932F933F930091890509
:1021180010918A0520918B0530918C05D801F90121
:102128003F912F911F910F913F1729F42E1719F402
:102138001B1709F40A1708F009F4B7C000E010E00B
:1021480020E030E00093EC051093ED052093EE05B8
:102158003093EF050091780510917905198308836C
:102168000091750510917605332722273A932A9313
:102178001A930A930E94011C2596CF93DF930E941D
:102188006A1CDF91CF911091CF03112309F01FEF43
:102198001095A9F0EFECF1E000E0A091EC05B0910A
:1021A800ED051081112319F41181112309F01196FD
:1021B80032960A95B1F7A093EC05B093ED05A88186
:1021C800B9811197A883B9830A2FB03009F4003078
:1021D800A1F6CF93DF930E94331CDF91CF91A0919A
:1021E8008905B0918A05E0918B05F0918C050091E5
:1021F800EC051091ED052091EE053091EF050150A9
:1022080010402040304020953095109500950A0FD9
:102218001B1F2E1F3F1F0E5F1F4F2F4F3F4F009357
:10222800EC051093ED052093EE053093EF050F9321
:102238001F932F933F930091890510918A05209150
:102248008B0530918C05D801F9013F912F911F9191
:102258000F913F1729F42E1719F41B1709F40A17C1
:1022680089F080F00091890510918A0520918B05ED
:1022780030918C050093EC051093ED052093EE0545
:102288003093EF0510E01A931FEF1A930091EC05B5
:102298001091ED052091EE053091EF053A932A93C0
:1022A8001A930A930E94850026960091EC051091D6
:1022B800ED052091EE053091EF050895229710E085
:1022C8001A9310E01A9300E010E020E030E03A930F
:1022D8002A931A930A930E94850026960093EC0588
:1022E8001093ED052093EE053093EF050F931F93A0
:1022F8002F933F930091890510918A0520918B05B2
:1023080030918C05D801F9013F912F911F910F91C0
:102318003F1729F42E1719F41B1709F40A1708F0A8
:1023280009F4C7C000E010E020E030E00093EC05BD
:102338001093ED052093EE053093EF050091780595
:102348001091790519830883009175051091760518
:10235800332722273A932A931A930A930E94011C3F
:102368002596CF93DF930E946A1CDF91CF9110913D
:10237800CF03112309F01FEF109529F1EFECF1E0DD
:1023880000E8A091EC05B091ED058091EE059091E3
:10239800EF051081112349F41181112331F41281C1
:1023A800112319F41381112319F0119608F40196D9
:1023B80034960A9571F7A093EC05B093ED058093D8
:1023C800EE059093EF05A881B9811197A883B98389
:1023D8000A2FB03009F4003021F6CF93DF930E9422
:1023E800331CDF91CF91A0918905B0918A05E091C6
:1023F8008B05F0918C050091EC051091ED0520916D
:10240800EE053091EF0501501040204030402095F6
:102418003095109500950A0F1B1F2E1F3F1F0E5F4A
:102428001F4F2F4F3F4F0093EC051093ED0520935E
:10243800EE053093EF050F931F932F933F93009171
:10244800890510918A0520918B0530918C05D8015A
:10245800F9013F912F911F910F913F1729F42E17E2
:1024680019F41B1709F40A1789F080F000918905FF
:1024780010918A0520918B0530918C050093EC050D
:102488001093ED052093EE053093EF0510E01A93B5
:102498001FEF1A930091EC051091ED052091EE05C0
:1024A8003091EF053A932A931A930A930E94850074
:1024B80026960091EC051091ED052091EE053091DE
:1024C800EF05089524971091B10512301FEF09F018
:1024D80010E011F4F3DE01C0FDDD22963B832A8370
:1024E80019830883E091D7050E94E9E3369527957B
:1024F80017950795089522970E9467DC088319832A
:10250800103009F4003009F461C0E881F98111E064
:102518001083E881F981F196EF93FF93CF93DF93CE
:10252800FE013F96FA93EA9341DADF91CF91FF914A
:10253800EF910193119321933083E881F981F59606
:102548000091CC011091CD0101931083E881F981AC
:10255800F1960191119121913081303029F4203088
:1025680019F4103009F4003009F429C0CF93DF932F
:1025780010E01A932D976F92FE01EF93FF93319617
:10258800FA93EA931CE01A9317EF61221FEB61227A
:10259800FE0173960E945CDF1CE00881101BFF910E
:1025A800EF91108323966F90EE85FF857196FA93CD
:1025B800EA930E940807DF91CF91109549F00881AE
:1025C80019811A930A930E9488DC229610E007C0AA
:1025D800EC8DFD8D08811981019310831FEF0895FB
:1025E8002497CF93DF93FE017E96FA93EA93DED980
:1025F800DF91CF913B832A8319830883303029F4F4
:10260800203019F4103009F4003009F4D4C0CF9305
:10261800DF932D976F92FE01EF93FF933196FA9314
:10262800EA931CE01A9317EF61221FEB6122FE0167
:10263800BE960E945CDF0CE01881011BFF91EF91B0
:10264800008323966F902D976F92FE01EF93FF936F
:102658003196FA93EA931CE01A9317EF61221FEB65
:102668006122FE01B1960E945CDF0CE01881011B1B
:10267800FF91EF91008323966F901FE31A93E0ED8B
:10268800F3E0FA93EA936BD1DF91CF91112321F014
:1026980018E01093CE018FC0CF93DF9310E01A9308
:1026A8002D976F92FE01EF93FF933196FA93EA9379
:1026B8001CE01A9317EF61221FEB6122FE01B2960C
:1026C8000E945CDF1CE00881101BFF91EF911083D2
:1026D80023966F90EBE2F5E0FA93EA930E940807DD
:1026E800DF91CF91109509F066C01FEF1A933C81D6
:1026F8002B811A8109813A932A931A930A93EBE260
:10270800F5E02B972BE030E0DE010E9474DD10E04D
:102718001A9310E11A930E9481096596112309F40E
:102728004AC0CF93DF9310E01A932D976F92FE0162
:10273800EF93FF933196FA93EA931CE01A9317EFFD
:1027480061221FEB6122FE0175960E945CDF1CE08E
:102758000881101BFF91EF91108323966F900091D1
:102768009705112701501040A0E2B0E0E89465F801
:102778000E9481E2F1E0EFECE00FF11FFA93EA9397
:102788000E940807DF91CF911095A9F40091980550
:102798001091990520919A0530919B053A932A93B7
:1027A8001A930A930FEC11E01A930A930E9481007E
:1027B80026961FEF01C010E00895249700E010E06E
:1027C80020E030E0EC81FD81019311932193308367
:1027D800CF93DF9310E01A932D976F92FE01EF933A
:1027E800FF933196FA93EA931CE01A9317EF61224C
:1027F8001FEB6122FE0177960E945CDF0CE01881D6
:10280800011B102FFF91EF91108323966F90EBE23D
:10281800F5E0FA93EA930E940807DF91CF911095AB
:1028280009F044C0CF93DF932D976F92FE01EF9389
:10283800FF933196FA93EA931CE01A9317EF6122FB
:102848001FEB6122FE01B3960E945CDF0CE0188149
:10285800011BFF91EF91008323966F902D976F9244
:10286800FE01EF93FF933196FA93EA931CE01A93D3
:1028780017EF61221FEB6122FE01B3960E945CDF15
:102888000CE01881011BFF91EF91008323966F9054
:1028980017E21A93E0EDF3E0FA93EA9360D0DF9140
:1028A800CF91109529F019E01093CE0110E00DC0DA
:1028B800E9EFF3E00191119121913081EC81FD81E3
:1028C80001931193219330831FEF08952497CF9399
:1028D800DF932D976F92FE01EF93FF933196FA9352
:1028E800EA931CE01A9317EF61221FEB6122FE01A5
:1028F800B2960E945CDF0CE01881011BFF91EF91FA
:10290800008323966F902D976F92FE01EF93FF93AC
:102918003196FA93EA931CE01A9317EF61221FEBA2
:102928006122FE01B2960E945CDF1CE00881101B48
:10293800FF91EF91108323966F900E8D18E11095FB
:1029480010231A93E0EDF3E0FA93EA9308D0DF91AD
:10295800CF91109511F010E001C01FEF0895249752
:10296800EC81FD81BD961E811083CF93DF93FE011C
:102978007496FA93EA931AD8DF91CF913B832A830E
:1029880019830883CF93DF931FEF1A932D976F92C4
:10299800FE01EF93FF933196FA93EA931CE01A93A2
:1029A80017EF61221FEB6122FE0178960E945CDF1F
:1029B8001CE00881101BFF91EF91108323966F9004
:1029C800EA89FB89BE96FA93EA930E940807DF9189
:1029D800CF91109509F094C01FEF1A933C812B8179
:1029E8001A8109813A932A931A930A93E985FA85F9
:1029F800BE962B972BE030E0DE010E9474DD1E8925
:102A08001A9310E01A930E9481096596112309F41C
:102A180077C000919705112701501040A0E2B0E05F
:102A2800E89465F80E9481E2F1E0EFECE00FF11F15
:102A3800EF93FF93EC81FD813D96DF01FF91EF91CC
:102A480020E230E00E9474DDEC81FD813D962B97F9
:102A58002BE030E0DE010E9474DDEF85F889FA93FF
:102A6800EA930E94A1062F96EC81FD81EF5AFF4F51
:102A7800109197051083EC81FD81EE5AFF4F00916C
:102A880094051091950501931083EC81FD81E35B1A
:102A9800FF4F009198051091990520919A05309162
:102AA8009B050193119321933083EC81FD81EC5AAE
:102AB800FF4F10919605112309F01FEF1083EC8149
:102AC800FD81EF5BFF4F00919C0510919D052091C2
:102AD8009E0530919F050193119321933083EC81DA
:102AE800FD81FD960091A0051091A1052091A205F8
:102AF8003091A30501931193219330831FEF01C0F7
:102B080010E00895E881F981EF5AFF4F1081109382
:102B18009705E881F981EE5AFF4F019110810093E2
:102B2800940510939505E881F981E35BFF4F0191C6
:102B38001191219130810093980510939905209364
:102B48009A0530939B05E881F981EC5AFF4F108173
:102B5800112309F01FEF10939605E881F981EF5BC7
:102B6800FF4F019111912191308100939C051093A1
:102B78009D0520939E0530939F05E881F981FD9678
:102B880001911191219130810093A0051093A10525
:102B98002093A2053093A3050E947C08112309F411
:102BA80096C010E01A9300E010E020E030E03A937D
:102BB8002A931A930A93ED81FE81BE962B972BE0F8
:102BC80030E0DE010E9474DDE889F989BD96108144
:102BD8001A9310E01A930E94810965961123E1F275
:102BE80000919705112701501040A0E2B0E0E89449
:102BF80065F80E9481E2F1E0EFECE00FF11FEF933E
:102C0800FF93E881F9813D96DF01FF91EF9120E282
:102C180030E00E9474DDE881F9813D962B972BE026
:102C280030E0DE010E9474DDEB85FC85FA93EA93BF
:102C38000E94A1062F96E881F981EF5AFF4F109163
:102C480097051083E881F981EE5AFF4F00919405AA
:102C58001091950501931083E881F981E35BFF4F9B
:102C6800009198051091990520919A0530919B053E
:102C78000193119321933083E881F981EC5AFF4F36
:102C880010919605112309F01FEF1083E881F9814F
:102C9800EF5BFF4F00919C0510919D0520919E05CB
:102CA80030919F050193119321933083E881F98135
:102CB800FD960091A0051091A1052091A2053091E3
:102CC800A30501931193219330831FEF01C010E0F6
:102CD8000895E881F9817C96008110E1011709F4D3
:102CE800E0C0E881F981F19601911191219130813B
:102CF8003A932A931A930A930E94040824960E94EE
:102D08005009112309F4D0C00091970511270150EB
:102D18001040A0E2B0E0E89465F80E9481E2F1E09A
:102D2800EFECE00FF11F3B9610811071103109F4A0
:102D3800B4C0E881F98171962B972BE030E0DE0171
:102D48000E9474DD00919705112701501040A0E200
:102D5800B0E0E89465F80E9481E2F1E0EFECE00F62
:102D6800F11F2B972BE030E0DE010E9474DD0E94FA
:102D7800CB076796112309F490C000919705112796
:102D880001501040A0E2B0E0E89465F80E9481E2AA
:102D9800F1E0EFECE00FF11F3B961081117011305C
:102DA80021F417E01093CE017CC0CF93DF930091FC
:102DB8009705112701501040A0E2B0E0E89465F8AB
:102DC8000E9481E2F1E0EFECE00FF11F74960191AF
:102DD800108133272227E0E10E94E9E30F931F9334
:102DE8002F933F9300919705112701501040E894C5
:102DF80065F80E9481E2F1E0EFECE00FF11F7A96AE
:102E08000191108133272227FF91EF91BF91AF9154
:102E18000A2B1B2B2E2B3F2B3A932A931A930A9398
:102E28000E94670ADF91CF9100919805109199054A
:102E380020919A0530919B053A932A931A930A9305
:102E48000FEC11E01A930A930E94610026960091F4
:102E58009705112701501040A0E2B0E0E89465F80A
:102E68000E9481E2F1E0EFECE00FF11F15EE108314
:102E7800009198051091990520919A0530919B052C
:102E88003A932A931A930A930FEC11E01A930A9330
:102E98000E94810026961FEF07C00E947C081095AB
:102EA80011F010E001C02BCF0895CF93DF9310E00D
:102EB8001A932D976F92FE01EF93FF933196FA9331
:102EC800EA931CE01A9317EF61221FEB6122FE01BF
:102ED80071960E945CDF0CE01881011B102FFF9196
:102EE800EF91108323966F90E1EEF3E0FA93EA9363
:102EF8000E940807DF91CF91109581F511E010939A
:102F0800D00316E21093EC03E1E0F4E0EF93FF93B3
:102F1800CF93DF93FE013D96FA93EA930E94DA0C71
:102F2800DF91CF91FF91EF9101931193219330831A
:102F3800E1E0F4E00191119121913081303029F4E0
:102F4800203019F4103009F4003041F000ED13E09E
:102F58001A930A93BEDE2296109511F010E001C074
:102F68001FEF0895088119811A930A930E949CDC27
:102F78002296109509F060C0E881F981108111301E
:102F880009F0123009F058C010E01093D005E8811C
:102F9800F9813596EF93FF93088119811A930A9363
:102FA8000E940C0A2296FF91EF91019311932193AD
:102FB80030831091CE01103009F03EC01091D00539
:102FC800112309F01FEF1123B9F1E881F981359632
:102FD8000191119121913081303029F4203019F478
:102FE800103009F40030F9F4088119811A930A9312
:102FF800EA81FB817C9610811A93EB81FC817F9694
:10300800019110811A930A93ED81FE81B196019185
:1030180010811A930A9331D02F96109569F4E8819C
:10302800F98111E01083088119811A930A930E948B
:10303800D40D2296109511F010E01EC0E881F98198
:10304800399610E000E001931083E881F9813D96FC
:1030580000E010E020E030E00193119321933083E9
:10306800E881F9813B9610E000E001931083E88144
:10307800F98112E010831FEF089528970D851E85AA
:103088001A930A930E949CDC2296109509F0B3C00B
:10309800ED85FE851081113009F0ADC01C851071D9
:1030A800103109F4A8C01C851072103221F000E21A
:1030B8001C85102B1C870D851E851A930A930E9468
:1030C8000C0A22963F832E831D830C831091CE0118
:1030D800103009F090C03F812E811D810C81303065
:1030E80029F4203019F4103009F4003099F190F1E6
:1030F80000919705112701501040A0E2B0E0E89434
:1031080065F80E9481E2F1E0EFECE00FF11F3B96D9
:1031180010811170113021F417E01093CE016BC0AB
:10312800ED85FE85B5961F810E8101931083ED858F
:10313800FE85BB961D810C81019310833F812E81F2
:103148001D810C813A932A931A930A930E94670A65
:103158002D9610C00E94BE053B832A8319830883DD
:10316800ED85FE85B59621933083ED85FE85BB966A
:1031780001931083ED85FE85B59601911081332763
:103188002227E0E10E94E9E3D8012F933F93ED85E0
:10319800FE85BB960191108133272227FF91EF917D
:1031A8000A2B1B2B2E2B3F2B3F832E831D830C8337
:1031B8003A932A931A930A930FEF1FEF2FEF3FE0EA
:1031C8003A932A931A930A930E94D1042896ED857C
:1031D800FE8535963F812E811D810C8101931193C7
:1031E800219330830D851E851A930A930E94D40D6E
:1031F8002296109511F010E051C0ED85FE857C9661
:103208001C851083ED85FE857F960A851B850193B5
:103218001083ED85FE85B196088519850193108385
:10322800ED85FE85B7960A851B8501931083ED858C
:10323800FE85B9960885198501931083ED85FE856D
:10324800B3960885198501931083ED85FE85BD9693
:1032580000E010E020E030E00193119321933083E7
:10326800ED85FE8513E01083ED85FE85399610E027
:1032780000E001931083ED85FE853D9600E010E0A7
:1032880020E030E00193119321933083ED85FE8592
:103298003B9610E000E0019310831FEF08952297FA
:1032A800EA81FB810191108108831983EA81FB81FE
:1032B80010E000E001931083088119811A930A93A2
:1032C8000E949CDC2296109571F5E881F9811081A5
:1032D800103011F1113009F41FC0133011F01430FF
:1032E80021F5E881F981BD96EF93FF93E881F98193
:1032F8003D960191119121913081FF91EF910193B8
:10330800119321933083088119811A930A930E949B
:10331800B50E2296109589F0088119811A930A939F
:103328000E9488DC229610E010C0153031F4CF934B
:10333800DF930E943F00DF91CF91088119811A9392
:103348000A930E9488DC22961FEF0895088119814C
:103358001A930A930E949CDC2296109511F01FEF95
:103368002AC0E881F9811081123011F010E023C0E1
:10337800E881F981BD9601911191219130810F93D6
:103388001F932F933F93E881F9813D960191119105
:1033980021913081D801F9013F912F911F910F910F
:1033A8003F1729F42E1719F41B1709F40A171FEFF2
:1033B80010F009F011270895229710E000E0EA8143
:1033C800FB8101931083088519851A930A930E943B
:1033D8009CDC2296109509F0E3C0088519851A939C
:1033E8000A930E811F811A930A930E94321026961F
:1033F8001D830C83E885F9851081123009F0D0C04F
:10340800E885F9853D9601911191219130810F93BD
:103418001F932F933F93E885F985BD9601911191EC
:1034280021913081D801F9013F912F911F910F917E
:103438003F1729F42E1719F41B1709F40A1708F077
:10344800AFC0E885F985BD96A191B19121913081F0
:103458002F933F93E885F9853D960191119121912C
:103468003081015010402040304020953095109513
:103478000095FF91EF910A0F1B1F2E1F3F1F0F93FF
:103488001F932F933F930C811D8133272227D80147
:10349800F9013F912F911F910F913F1729F42E1792
:1034A80019F41B1709F40A1790F4E885F985BD96F5
:1034B800A191B081E885F9853D960191108101506F
:1034C8001040109500950A0F1B1F1D830C830C815B
:1034D8001D81103009F4003009F4B4C0E885F9857D
:1034E800399601912091800530918105108113173B
:1034F80009F4021711F5E885F985399610E000E01E
:1035080001931083088519851A930A930E94230E44
:103518002396109591F0088519851A930A93EC81E2
:10352800FD81008111811A930A930E94FB0F249652
:10353800EA81FB810193108333C0E885F9853996C8
:1035480001911081019509F41A9510953091810522
:1035580020918005020F131F1983088398011D818C
:103568000C81131709F4021720F40C811D811983AB
:103578000883E885F985319601911191219130816F
:103588003A932A931A930A930FEC11E01A930A9329
:103598000E9461002696109529F015E01093CE013F
:1035A80010E067C0E885F985399601911081F1E04E
:1035B800EFECE00FF11FEF93FF93EE81FF8108819D
:1035C8001981DF01FF91EF9198010E9474DD198143
:1035D800B801AC81BD81A61BB70BAC83BD83E88560
:1035E800F9853D960881198133272227B801C90139
:1035F80020813181A281B381260F371FA81FB91FEF
:1036080020833183A283B383E885F985399668815D
:103618007981A081B181A60FB71FA083B183EA8108
:10362800FB8168817981A081B181A60FB71FA08332
:10363800B18368817981AE81BF81A60FB71FAE8340
:10364800BF8345CF088519851A930A93EC81FD81BC
:10365800008111811A930A930E94FB0F2496EA8134
:10366800FB81019310831091CE01103010E009F412
:103678001FEF0895239712E00AE81A8309831FEFC2
:103688001A930E94C5DC219618831F3F11F41FEF7F
:103698000BC0A981BA811197A983BA830A2FB030C8
:1036A80009F4003061F710E0089522971E81107820
:1036B8001030A1F01E811F771E8317E71A9300E0D0
:1036C80010E020E030E03A932A931A930A93EDDF52
:1036D80027961983113011F008F04EC02C9A1FEF6D
:1036E8001A930E94C5DC21962C98C4DF23961E816C
:1036F8001A930E94C5DC21961D811A930E94C5DC8D
:1037080021961C811A930E94C5DC21961B811A936D
:103718000E94C5DC21961A811A930E94C5DC219665
:103728001FEF18831E81103419F415E9188305C09A
:103738001E81183411F417E8188318811A930E940F
:10374800C5DC21961AE018831FEF1A930E94C5DC86
:103758002196198318811A951883198110781030C9
:1037680010E009F41FEF1F93188110301FEF09F0C4
:1037780011270F91102B41F31981089521970FEF0D
:103788001FEF2FEF3FEF0093270510932805209395
:10379800290530932A0510918D05112309F01FEF93
:1037A800109561F038852F811E810D81E9E00E9416
:1037B800E9E338872F831E830D830DC017ED1A9315
:1037C8003D812C811B810A813A932A931A930A938B
:1037D8006CDF2796188319E51A93398528851F8188
:1037E8000E813A932A931A930A935FDF27961883D8
:1037F800103010E009F41FEF08952197CF93DF935D
:103808000E943F00DF91CF9110918D05112309F09F
:103818001FEF109559F03C812B811A810981E9E04D
:103828000E94E9E33C832B831A83098323DF2396D1
:1038380012E51A933D812C811B810A813A932A93C0
:103848001A930A9332DF27961883103011F010E08C
:1038580005C01881103010E009F41FEF08951CE42A
:103868001A9300E010E020E030E03A932A931A938C
:103878000A931BDF27962C9A1FEF1A930E94C5DC28
:1038880021961FEF08950AEF1FEF0E94C5DC1F3F26
:1038980021F00A95C9F710E018C01CEF0E94C5DC9A
:1038A80080E092E011270E94C5DC0197D9F71FEF4D
:1038B8000E94C5DC1FEF0E94C5DC1FEF0E94C5DC1B
:1038C8001F71153010E009F41FEF0895002780E7F5
:1038D80097E11FEF0E94C5DC1E3F0000000021F0A9
:1038E8000197B9F7112712C0EFECF1E080E092E000
:1038F8001FEF0E94C5DC1193012B0197C9F71FEF39
:103908000E94C5DC1FEF0E94C5DC1FEF00950093E5
:10391800CF0308952B9700E010E020E030E00093FB
:1039280071051093720520937305309374050FEF9A
:103938001FEF2FEF3FEF00932705109328052093E3
:10394800290530932A0510E010938D052C9A18EC60
:103958001987103041F01FEF1A930E94C3DC21969B
:1039680019851A95F5CF14E6198710E01E83198575
:10397800103009F4E3C010E41A9300E010E020E0EE
:1039880030E03A932A931A930A938FDE27961130E0
:1039980009F0D0C010E0198719E004ECE7ECF5E075
:1039A800B1E00E9403E418E41A930AEA11E020E067
:1039B80030E03A932A931A930A9377DE27961130C8
:1039C80009F075C01FEF1A930E94C3DC21961FEF00
:1039D8001A930E94C3DC21961FEF1A930E94C3DC3E
:1039E80021961B831FEF1A930E94C3DC21961A832A
:1039F8001B81113010E009F41FEF1F931A811A3A46
:103A080010E009F41FEF0F91102309F48AC017E79B
:103A18001A9300E010E020E030E03A932A931A93DA
:103A28000A9343DE279619EE1A9300E010E020E08F
:103A380030E43A932A931A930A9337DE2796103084
:103A480019F0082D017019F71AE71A9300E010E031
:103A580020E030E03A932A931A930A9326DE2796B9
:103A6800103009F51FEF1A930E94C3DC21961C83BE
:103A78001FEF1A930E94C3DC21961FEF1A930E942E
:103A8800C3DC21961FEF1A930E94C3DC21961C8188
:103A98001074103029F01FEF10938D0514E001C049
:103AA80013E01E833EC0082D017071F63AC019EE6E
:103AB8001A9300E010E020E030E03A932A931A933A
:103AC8000A93F3DD2796113008F021F412E01D83E4
:103AD80019EE03C011E01D8311E41F831D811E83AD
:103AE8001F811A9300E010E020E030E03A932A9317
:103AF8001A930A93DADD2796103019F0082D017011
:103B080079F710E51A9300E012E020E030E03A93EC
:103B18002A931A930A93C9DD2796103011F010E002
:103B28001E83082D017011F410E01E831E811030D1
:103B380029F41DCF19851A95198719CF2C9A1FEFCB
:103B48001A930E94C3DC21960E94BBDC1FEF1A93D4
:103B58000E94C5DC21961FEF1A930E94C5DC2196AE
:103B68001E81103010E009F01FEF0895EFECF1E02E
:103B78008F010093B2051093B30508950A811B8144
:103B88001A930A9310E000E01A930A9311E00FEFDA
:103B98001A930A930E9498E426961123C1F10A8188
:103BA8001B811A930A9310E000E81A930A9310E015
:103BB8000FEB1A930A930E9498E426961F930A81A2
:103BC8001B811A930A9310E000ED1A930A9310E0F0
:103BD8000FED1A930A930E9498E426960F91102BE2
:103BE80031F01981103010E009F01FEF1983E8E077
:103BF800FFE20A811B81E00FF11F19811083E5E7BD
:103C0800F1E30A811B81E00FF11F188110830895E9
:103C180022970D811E81198308832D813E810B8196
:103C28001C81020F131F015010401A930A93AA8196
:103C3800BB8128813981B31709F4A21709F088F4E8
:103C4800E5E7F1E30A811B81E00FF11F1C81108376
:103C5800AA81BB811196AA83BB83BB2351F7AA23F0
:103C680041F722960895229710E01983ECE0F0E0DE
:103C7800FA93EA9317E0108310E01A9310810881F1
:103C8800011709F0D8F41C81110F1F93E8E8FFE22F
:103C98000D811C2D100F012F1127E00FF11F10812E
:103CA800112309F01FEF11700F91102B1C83E9816C
:103CB800FA8110811A9510831F3F09F723961981FD
:103CC8000895ECE0F0E0FA93EA9310E0108317E02F
:103CD8001A93108108810117C8F0E8E8FFE20B8108
:103CE8000C0D1127E00FF11FEF93FF93FE0134969F
:103CF800DF011C2D0E9412E5FF91EF911083E981ED
:103D0800FA81108113951083112321F723960895C2
:103D180022971A811A93A7DF2396D12ED8821A8167
:103D2800185F1A93A0DF2396D12ED98208811D2D02
:103D3800089510919308103091F4EBE0F8E0EF93B8
:103D4800FF933196FA93EA931FE11A9317EF6122D2
:103D58001FEB6122EDE4FBEC0E9450DFAFC0EBE00B
:103D6800F8E0EF93FF933196FA93EA931FE11A93E1
:103D780017EF61221FEB61221DE20E941EE21091E3
:103D88009308CF93DF931A9310E01A9310E01A93D5
:103D980010E21A930E9470DFDF91CF91E4E5FBEC0B
:103DA8000E9450DF1FE10881101BFF91EF911083E3
:103DB8002396ECE0F0E0FA93EA9310E0108316E023
:103DC8001A93108108810117B8F1A3E9B8E01C2DF6
:103DD8000E9412E5112349F1EBE0F8E0EF93FF931D
:103DE8003196FA93EA931FE11A9317EF61221FEBBA
:103DF8006122EBE0F8E00E945CDF0C2D1127A5E0C2
:103E0800B0E0E89465F80E9481E2F2EDE5E4E00FA5
:103E1800F11F0E9450DF10E20E941EE20FE118819C
:103E2800011BFF91EF9100832396E981FA811081AC
:103E380013951083112331F62396EBE0F8E0EF9306
:103E4800FF933196FA93EA931FE11A9317EF6122D1
:103E58001FEB6122EBE0F8E00E945CDF10E20E94B9
:103E68001EE20D811E81CF93DF931A930A9310E00F
:103E78001A9310E01A9310E21A93689465F8E8947C
:103E880074F875F80E949FE1DF91CF9110E20E94CB
:103E98001EE20B811C81CF93DF931A930A9310E0E3
:103EA8001A9310E01A9310E21A93689465F8E8944C
:103EB80074F875F80E949FE1DF91CF910FE11881A6
:103EC800011BFF91EF9100832396EBE0F8E0EF935D
:103ED800FF933196FA93EA931FE11A9317EF612241
:103EE8001FEB6122EBE0F8E00E945CDF1DE50E9419
:103EF8001EE21FE10881101BFF91EF9110832396AA
:103F0800CF93DF9318E0612A0FED1BED1A930A9304
:103F1800EBE0F8E00E945CDF1DE00E941EE21AE080
:103F28000E941EE2DF91CF9110E01093930808954C
:103F3800A3E9B8E01C810E94F7E4CF93DF930A81DC
:103F48001B811A930A930A811B811A930A93F1DE43
:103F5800DF91CF910895EBE0F8E0EF93FF9331966E
:103F6800FA93EA931FE11A9317EF61221FEB61227C
:103F78003E812D811C810B81CF93DF933A932A9345
:103F88001A930A9310E01A9310E01A9310E21A9306
:103F9800689465F8E89474F875F862F80E94B0DFE0
:103FA800DF91CF911FE10881101BFF91EF911083E2
:103FB8002396CF93DF9318E0612A0FED1BED1A9338
:103FC8000A93EBE0F8E00E945CDF1DE00E941EE22D
:103FD8001AE00E941EE2DF91CF910895EBE0F8E02D
:103FE800EF93FF933196FA93EA931FE11A9317EF31
:103FF80061221FEB61221B81CF93DF931A9310E09C
:104008001A9310E01A9310E21A930E9470DFDF915E
:10401800CF911FE10881101BFF91EF911083239628
:10402800CF93DF9318E0612A0FED1BED1A930A93E3
:10403800EBE0F8E00E945CDF1DE00E941EE21AE05F
:104048000E941EE2DF91CF910895CF93DF931881EC
:104058001A93C4DFDF91CF910895EBE0F8E0EF9376
:10406800FF933196FA93EA931FE11A9317EF6122AF
:104078001FEB61223E812D811C810B81CF93DF9341
:104088003A932A931A930A9310E01A9310E01A931A
:1040980010E21A93689465F8E89474F875F862F871
:1040A8000E94B0DFDF91CF91EBE5FBEC0E9450DF7F
:1040B8003E812D811C810B81B801C901492F0E94C5
:1040C80012E2482F0E9412E2472F0E9412E2462F66
:1040D8000E9412E21DE50E941EE21FE10881101BEA
:1040E800FF91EF9110832396CF93DF9318E0612A15
:1040F8000FED1BED1A930A93EBE0F8E00E945CDFEA
:104108001DE00E941EE21AE00E941EE2DF91CF919C
:104118000895EBE0F8E0EF93FF933196FA93EA9372
:104128001FE11A9317EF61221FEB6122EFE5FBEC09
:104138000E9450DFEBE4F8E00E945CDF1DE50E947E
:104148001EE21FE10881101BFF91EF911083239657
:10415800CF93DF9318E0612A0FED1BED1A930A93B2
:10416800EBE0F8E00E945CDF1DE00E941EE21AE02E
:104178000E941EE2DF91CF910895CF93DF9318E05C
:10418800612A0FED1BED1A930A93E3E6FBEC0E94FC
:1041980050DFDF91CF910895CF93DF9318E0612A24
:1041A8000FED1BED1A930A93EDE6FBEC0E9450DF2E
:1041B800DF91CF9108955A98082D027039F410E0D4
:1041C8000BE4E0EFF5E0B2E00E940FE408955A989E
:1041D800082D027039F410E009E1E0EFF5E0B2E0F3
:1041E8000E940FE408955A98082D027039F410E0DF
:1041F8000DE7E0EFF5E0B2E00E940FE408955A9869
:1042080011E004EFE0EFF5E0B2E00E940FE408955A
:1042180018811095E894112309F068941BB112F9DC
:104228001BB90895ECE0F0E0FA93EA9310E01083EC
:104238001A811A9310810881011788F05A9810E0A2
:1042480004E60E945CDD5A9810E004E60E945CDDFA
:10425800E981FA81108113951083112361F7239660
:1042680010E01A93D5DF219608951091DB352B982D
:104278001EBD1DB517FFFDCF1EB51093DC352B9A5B
:1042880008951091D8352B981EBD1DB517FFFDCF89
:104298001EB51093DA351091D7351EBD1DB517FF21
:1042A800FDCF1EB51093D9352B9A08951091CE35B0
:1042B8002B981EBD1DB517FFFDCF1EB51093D23527
:1042C8001091CD351EBD1DB517FFFDCF1EB510933E
:1042D800D1351091CC351EBD1DB517FFFDCF1EB5CC
:1042E8001093D0351091CB351EBD1DB517FFFDCFEE
:1042F8001EB51093CF352B9A08951091C83529987B
:104308001EBD1DB517FFFDCF1091C7351EBD1DB5CC
:1043180017FFFDCF299A089518811093C73510E02B
:104328001093C835EADFCF93DF93C0DFDF91CF91D9
:104338000091CF351091D0352091D1353091D235BB
:10434800089518811093C73510E81093C835D5DF44
:1043580010E01093D83519811093D735CF93DF9398
:1043680090DFDF91CF91089518811093C73510E839
:104378001093C835C2DF09811127000F111F009360
:10438800D7351093D835CF93DF937BDFDF91CF916B
:104398000895E7ECF5E31981108310E81093C83508
:1043A800ACDF10E01093D835FF931A811A93198166
:1043B8001A9314E61A930E943EDD2396FF911093F8
:1043C800D735CF93DF935DDFDF91CF910895E7EC89
:1043D800F5E318811083E8EC10E811938EDF09816A
:1043E80011270093D7351093D8351A930A93009163
:1043F800D7351091D8351A930A9310E000E41A9330
:104408000A9310E00E944ADD26960093D735109350
:10441800D835CF93DF9335DFDF91CF910895188199
:104428001093C73510E81093C83567DF09811A81E2
:104438000093D7351093D835CF93DF9322DFDF91E0
:10444800CF91089518811093C73510E81093C83597
:1044580054DF3C812B811A8109810093CB3510935D
:10446800CC352093CD353093CE35CF93DF931EDFF7
:10447800DF91CF910895219710E01093C9351093DB
:10448800CA351981112381F01AE314B91CE51CBD42
:1044980010E01DBD1FE915B910E010938E0846986D
:1044A80015E00E946BDD469A10E0188310E00AE0E0
:1044B8000E945CDD188113951883112737991FEF27
:1044C8001F9318811A3F10E011F008F01FEF0F91A9
:1044D800102B61F31981112321F01BEB14B91FE98B
:1044E80015B9E8943799689418B116F918B9379B33
:1044F8008BC013E01A9310DF21961091CF351093DB
:10450800D5351091D0351093D6351091D1351093FB
:10451800D4351091D2351093D3350091CF35109101
:10452800D0352091D1353091D23540E83427303814
:1045380029F4203019F4103009F4003010E009F0A3
:104548001FEF1F930091CF351091D0352091D135B1
:104558003091D23540E834273F3729F42F3F19F4FA
:104568001F3F09F40F3F10E009F01FEF0F911023D0
:104578001093C935112309F01FEF1F930091D3350C
:104588001091D4352091D5353091D63540E834276F
:10459800303A29F4223219F4103109F4023110E0CA
:1045A80008F01FEF0F9110231093CA351091C935E9
:1045B800112309F01FEF1123E1F01091CA351123DF
:1045C80009F01FEF1095B9F1CF93DF9318E0612A36
:1045D8000FED1BED1A930A93E9E7FBEC0E9450DFFD
:1045E8001DE00E941EE21AE00E941EE2DF91CF91B8
:1045F80022C0CF93DF9318E0612A0FED1BED1A93C9
:104608000A93E5E9FBEC0AC0CF93DF9318E0612A2F
:104618000FED1BED1A930A93EDEAFBEC0E9450DFB5
:104628001DE00E941EE21AE00E941EE2DF91CF9177
:104638001FEF10938E0810918E08112309F01FEFB9
:10464800112311F11091042F112309F01FEF1123E9
:10465800D1F010E01A9310E01A9311E01A930E9417
:1046680071DA2396CF93DF9318E0612A0DE51AEDEE
:104678001A930A93E9EDFBEC0E9450DFDF91CF918A
:1046880010E00E9491DA7FC01091042F112309F0E5
:104698001FEF112309F454C013E01A933DDE21964D
:1046A8000091CF351091D0352091D1353091D23548
:1046B800009381081093820820938308309384081C
:1046C80010E01A9310E01A9311E01A930E9471DA1D
:1046D8002396CF93DF9318E0612A0DE51AED1A931C
:1046E8000A93E4EEFBEC0E9450DFDF91CF91CF9369
:1046F800DF9318E0612A0DE51AED1A930A930091E9
:104708008108109182082091830830918408689468
:1047180063F8B801C901492F0E9412E2482F0E948C
:1047280012E2472F0E9412E2462F0E9412E2DF9106
:10473800CF9110E00E9491DA11E004EF0E945CDD55
:10474800CF93DF9350DDDF91CF91ECE0F0E0FA9367
:10475800EA9310E010831FEF1A9310810881011764
:1047680088F012E01A93D8DD219612E01A93D4DD6E
:1047780021961A9907C0E981FA811081139510834F
:10478800112361F723960895229710E000E019831A
:10479800088313E00FEF1A930A93AA81BB8128813B
:1047A8003981E0E8BE273E27B31709F4A21709F0BC
:1047B80078F412E01A93B0DD21961A9909C0AA81FB
:1047C800BB811196AA83BB83B03849F7A03039F76B
:1047D800229610E01A931AD0219610E005E00E9464
:1047E8005CDD12E01A9398DD21961091D1351A3AC2
:1047F80039F41091D035109391081091CF3503C03A
:1048080010E01093910810939208089510E81093FF
:10481800C83511E81093C73570DD18811093DB3562
:10482800CF93DF9322DDDF91CF91089518811A93FA
:10483800EDDF219610E81093C7355FDD08951091DC
:10484800DE351EBD1DB517FFFDCF1EB51093DF3534
:104858000895289815E01093DE35F1DFF0DF109108
:10486800DF3511701030D1F7289A0895289816E08E
:104878001093DE35E4DF289A0895F8DF289811E0D0
:104888001093DE35DCDF10E01093DE35D8DF289A90
:10489800E0DF0895EBDF289811E01093DE35CFDFD5
:1048A8001FE31093DE35CBDF289AD3DF0895DEDFD0
:1048B8002898088119813327222740E050E160E0D9
:1048C80070E0689465F80E94DDE20093E03510938B
:1048D800E1352093E2353093E33510E21093DE356D
:1048E800AEDF1091E2351093DE35A9DF1091E13586
:1048F8001093DE35A4DF1091E0351093DE359FDF8D
:10490800289AA7DF1091DF351072103010E009F4F3
:104918001FEF0895ABDF289817EC1093DE358FDF73
:10492800289A97DF1091DF351072103010E009F4E3
:104938001FEF0895269710E000E01D830C8308857B
:1049480019853327222740E050E160E070E0689441
:1049580065F80E94DDE23B832A8319830883E4EE2D
:10496800F5E3FA93EA9310E000E011830083EF93F4
:10497800FF9308851985D80120E031E0E89465F8AF
:104988000E94A3E201501040FF91EF911A930A93FD
:10499800A081B18128813981B31709F4A21711F0D8
:1049A80008F05EC063DF28983F812E811D810C814D
:1049B8000093E0351093E1352093E2353093E335E9
:1049C80012E01093DE353BDF1091E2351093DE35AF
:1049D80036DF1091E1351093DE3531DF1091E03587
:1049E8001093DE352CDFEBE0F0E0FA93EA9310E069
:1049F80010831FEF1A93108108810117B0F0E4E1CA
:104A0800FDE10B851C85E00FF11F10811093DE3549
:104A180016DFAB85BC851196AB87BC87E981FA8127
:104A2800108113951083112339F72396289A11DFE3
:104A3800AC81BD818E819F81A050BF4F8F4F9F4F0A
:104A4800AC83BD838E839F83EA81FB81A081B18182
:104A58001196A083B183BB2311F4AA2309F09ACF3E
:104A680024961091DF351072103010E009F41FEF12
:104A780008952197CF93DF9300DFDF91CF9110E066
:104A880018830B811C811A930A9311DF2296112334
:104A980059F00B811C811A930A930B811C811A937C
:104AA8000A9348DF2A961883CF93DF93F3DEDF91CA
:104AB800CF9118810895CDDE0A811B8133272227E3
:104AC80040E050E160E070E0689465F80E94DDE243
:104AD8000093E0351093E1352093E2353093E335C8
:104AE80028981BE01093DE35AADE1091E23510936A
:104AF800DE35A5DE1091E1351093DE35A0DE10918C
:104B0800E0351093DE359BDE10E01093DE3597DE3E
:104B1800E4EEF5E3FA93EA9310E000E011830083F2
:104B28000A811B81015010401A930A93A081B18118
:104B380028813981B31709F4A21709F0B8F47FDE88
:104B4800E4E1FDE10091E4351091E535E00FF11F56
:104B58001091DF351083EA81FB81A081B181119624
:104B6800A083B183BB2321F7AA2311F72496289A9F
:104B7800089526975A981091042F112309F01FEFD2
:104B88001123A9F010E00E9489DACF93DF9318E08F
:104B9800612A0DE51AED1A930A93EBEEFBEC0E94DD
:104BA80050DFDF91CF91109107061093040610E0B3
:104BB80000E019830883088519851D830C830E81FD
:104BC8001F811A930A93AE81BF8128813981B31757
:104BD80009F4A21711F008F043C00E811F811A933F
:104BE8000A9310E100E01A930A9365DF249610E017
:104BF80000E01D830C831FE00FEF1A930A93AE8128
:104C0800BF8128813981B31709F4A21709F0B8F4D4
:104C18002C813D81E4E1FDE10E811F81E00FF11F50
:104C280000811127020F131F1D830C83AE81BF81E2
:104C38001196AE83BF83BB2321F7AA2311F72296CF
:104C480068945A99E8941BB112F91BB9AE81BF81D7
:104C58001196AE83BF83BB2311F4AA2309F0B5CF05
:104C680022960881198108952A9710E000E0198793
:104C7800088710E000E01F830E830A851B8510312A
:104C880009F4003080F40A851B85D80124E030E05F
:104C9800E89465F80E94A3E2015010401B830A8340
:104CA8000A851B8506C013E00FEF1B830A8310E1FA
:104CB80000E0198308831C851A93B8DD21962D8599
:104CC8003E8508851985020F131F1A930A930A81D6
:104CD8001B811A930A93EFDE249610E000E01D83EF
:104CE8000C830A811B811A930A93AE81BF812881A4
:104CF8003981B31709F4A21709F000F5E4E1FDE1E1
:104D08000E811F81000F111F000F111FE00FF11FEF
:104D180001911191219130810093CB351093CC35BD
:104D28002093CD353093CE35C1DAAE81BF8111964F
:104D3800AE83BF83BB23D9F6AA23C9F62296AE81D8
:104D4800BF81A050B04FAE83BF83A885B9851196A7
:104D5800A887B9872A853B851F810E81131709F417
:104D6800021708F4ACCF1C851A9350DD21960895DC
:104D780022971A811030C9F4EBE4F8E0EF93FF931F
:104D88003196FA93EA931FE11A9317EF61221FEB0A
:104D98006122E9E0FBEC0E9450DF1FE10881101B53
:104DA800FF91EF91108323964DC00A811127005E71
:104DB8001C4F198308831A930A9311E000E01A9391
:104DC8000A9379DE24961091D41D1A9311E01A9350
:104DD8001FE01A930E948DE423961123C9F0EBE497
:104DE800F8E0EF93FF933196FA93EA931FE11A9351
:104DF80017EF61221FEB6122E4EDFDE10E945CDF09
:104E08001FE10881101BFF91EF91108323961AC0B0
:104E1800EBE4F8E0EF93FF933196FA93EA931FE1FE
:104E28001A9317EF61221FEB6122EBEFFBEC0E9454
:104E380050DF1FE10881101BFF91EF91108323962B
:104E480010E001C01FEF089522970C811D811A936D
:104E58000A9310E100E01A930A932DDE24960A8142
:104E68001B81198308831FE00FEF1A930A93AA8105
:104E7800BB8128813981B31709F4A21709F0D0F44E
:104E8800E0E0F0E00A811B81E00FF11FEF93FF9350
:104E9800E4E1FDE1E00FF11F1081FF91EF910E9425
:104EA80083DDAA81BB811196AA83BB83BB2309F743
:104EB800AA23F9F6229608955A981091042F1123DF
:104EC80009F01FEF112309F43DC010E00E9489DAB0
:104ED800CF93DF9318E0612A0DE51AED1A930A9330
:104EE800E5E0FCEC0E9450DFDF91CF9110E01A93CF
:104EF80010E01A9311E01A930E9471DA2396CF9367
:104F0800DF9318E0612A0DE51AED1A930A930091D0
:104F18008108109182082091830830918408689450
:104F280063F8B801C901492F0E9412E2482F0E9474
:104F380012E2472F0E9412E2462F0E9412E2DF91EE
:104F4800CF9151D910910408112309F01FEF1123B3
:104F580039F0E5E0F8E0FA93EA930E9453192496B1
:104F6800CF93DF9318E0612A0FED1BED1A930A9394
:104F7800E5E1FCEC0E9450DF1DE00E941EE21AE011
:104F88000E941EE2DF91CF9110E004E60E945CDDF2
:104F980010E015BF109369001DBB109368001093B3
:104FA80060001093610014BF0C9400FC28975A9875
:104FB800ECE0F0E0FA93EA9310E0108313E01A9320
:104FC800108108810117C0F0FE013996FA93EA931F
:104FD80014E61A930E94A8DB23961985153510E06C
:104FE80009F41FEF1A87112339F4E981FA81108136
:104FF80013951083112329F723961F81112379F024
:10500800FE013696FA93EA931AE01A930E94A8DBF7
:1050180023961E811A3A10E009F41FEF1F831F819F
:10502800112309F461C0FE013296FA93EA9314E65B
:105038001A93A2E0B0E00E94A1DB239610E000E002
:105048001983088310E000E01D830C830885198507
:10505800015010401A930A93AE81BF81288139818B
:10506800B31709F4A21709F098F5FE013896FA93D8
:10507800EA9312E31A930E94A8DB23961987E4E1C6
:10508800FDE10E811F81E00FF11F188511932A8120
:105098003B8108851127020F131F1B830A83AE81EA
:1050A800BF8120E830E0E89465F80E94A3E28F0110
:1050B800103009F4003019F416E00E94DFDBAE81ED
:1050C800BF811196AE83BF83BB2341F6AA2331F675
:1050D80022962A813B8119810881131709F4021746
:1050E80010E009F41FEF1F838AD81F8108952197C4
:1050F8005A981FEF1883CF93DF93BFDBDF91CF91CF
:105108000B811C811A930A93D2DB2296112361F03A
:105118000B811C811A930A930B811C811A930A93A1
:1051280009DC2A96109511F010E01883CF93DF93CD
:10513800B1DBDF91CF911881089510910E301830AE
:1051480078F4BFE2A8E810E0E4E0F0E0319600006F
:10515800319711F01D93FCCF17E010930E3016C055
:1051680000910E301FEF03FF11271093882F1FEFB8
:1051780002FF11271093892F1FEF01FF11271093AA
:105188008A2F1FEF00FF112710938B2F089510E02F
:1051980010930E30AEE0B0E31091882F112309F080
:1051A8001FEF03E00E9428E5AEE0B0E31091892FDD
:1051B800112309F01FEF02E00E9428E5AEE0B0E3FA
:1051C80010918A2F112309F01FEF01E00E9428E5B2
:1051D800AEE0B0E310E01F9310918B2F112309F07C
:1051E8001FEF0F910E9428E510910E30183018F427
:1051F80017E010930E30089510E010930F30AFE0D1
:10520800B0E31F931091942F112309F01FEF0F9112
:105218000E9428E5AFE0B0E31091952F112309F023
:105228001FEF01E00E9428E508951091F93013302E
:10523800A9F4ACEDBFE210E0E6E0F0E03196000042
:10524800319711F01D93FCCFECEDFFE20091103087
:105258001127E00FF11F1FEF10832EC01091F930B6
:10526800103051F11091F930113029F410911030AB
:10527800EAEAFCEE04C010911030E2EBFCEE177085
:105288000027E10FF01F11E01BBFD69000910D0021
:105298001FEF00FF11271093DC2F1FEF01FF1127CD
:1052A8001093DD2F1FEF02FF11271093DE2F1FEF42
:1052B80003FF11271093DF2FA9E4B2E310E0E6E023
:1052C800F0E031960000319711F01D93FCCF1FEFED
:1052D8001093030608951091F930133029F510E062
:1052E80010931030ECE0F0E0FA93EA9311E01083A9
:1052F80015E01A93108108810117A0F0ECEDFFE288
:105308001127EC0DF11F1081112309F01FEF112354
:1053180011F0C0921030E981FA8110811395108341
:10532800112349F723966CC01091F930103009F415
:1053380067C01091F9301130C1F514E010931030A6
:105348001091DC2F112309F01FEF1F931091DD2F0F
:10535800112309F01FEF0F9110231030C9F4109199
:10536800DD2F112309F01FEF112331F010911030B8
:105378001250109310300CC01091DC2F112309F03B
:105388001FEF112329F01091103014501093103092
:10539800109110301A9310E01A9314E01A930E9497
:1053A80083E42396109310301CC01091F93012300A
:1053B800C1F410E0109310301091DD2F112309F083
:1053C8001FEF112321F012E0109310300AC0109142
:1053D800DE2F112309F01FEF112319F014E01093A9
:1053E80010301091DF2F112309F01FEF112329F03E
:1053F8001091103013951093103010E410937D32F3
:105408001FEF109303060895009115301091013194
:10541800011710E009F41FEF10931E06112309F07D
:105428001FEF1F9310911530103010E009F41FEF93
:105438000F91102B10932006009116301091013116
:10544800011710E009F41FEF10931F06112309F04C
:105458001FEF1F9310911630103010E009F41FEF62
:105468000F91102B1093210610911E06112309F09D
:105478001FEF1F931091FF30123010E009F41FEF57
:105488000F9110231093220610911F06112309F083
:105498001FEF1F931091FF30123010E009F41FEF37
:1054A8000F911023109323061091FF30123029F02A
:1054B80010E010932406109325060895A1E8B2E39E
:1054C80010E0E4E0F0E031960000319711F01D9310
:1054D800FCCFA8EDBFE210E0E0E1F0E0319600007B
:1054E800319711F01D93FCCFA5E3B2E310E0E0E1A2
:1054F800F0E031960000319711F01D93FCCF08952C
:105508001B810E9460DB1123E1F01AE00E946BDD31
:10551800E89477F84B811A81312FE89460F8A0E07D
:10552800B0E050E00E9477DB1AE00E946BDD1B813F
:10553800412FE881F981A1E0B0E00E9469DB1FEF0B
:1055480001C010E008951A810E9460DB112391F0D8
:105558001AE00E946BDDE89477F84A811981312FAF
:10556800E89460F8FE01A1E0B0E050E00E9477DB2B
:105578001FEF01C010E0089521971981165A18836A
:105588000E9460DB112309F446C015E00E946BDD20
:10559800ECE0F0E0FA93EA9310E0108316E11A9336
:1055A80010810881011718F1E0EFF5E31127EC0DE0
:1055B800F11FEF93FF930C81A8E1B0E0E89465F840
:1055C8000E9481E298010C2D1127020F131FF7E0AA
:1055D800E0E3E00FF11F0E94A5DDFF91EF9110833A
:1055E800E981FA811081139510831123D1F623964E
:1055F8001FEF10930736E89477F8488110E0312FB1
:10560800E89460F8E0EFF5E3A8E1B0E050E00E942C
:1056180077DB1FEF01C010E008951091C935112301
:1056280009F01FEF112309F485C011E01A930E94B5
:10563800902121961091CF35103009F450C0109167
:10564800042F112309F01FEF1F931091F80711235E
:1056580009F01FEF10950F9110231F931127082DA4
:10566800027009F410950F91102391F1109107061B
:105678001093040610E01A9310E01A9310E01A939E
:105688000E9471DA2396CF93DF9318E0612A0DE523
:105698001AED1A930A93E2E7FCEC0E9450DFDF91BF
:1056A800CF9110E01A9310E01A9311E01A930E9418
:1056B80071DA2396CF93DF9318E0612A0DE51AED8E
:1056C8001A930A93E3E8FCEC0E9450DFDF91CF9134
:1056D80010E009E1E0EFF5E0B2E00E940FE410917C
:1056E800F807112309F01FEF1F931091CF351030E1
:1056F80010E009F41FEF0F911023A1F0CF93DF936F
:1057080018E0612A0FED1BED1A930A93E4E9FCEC0B
:105718000E9450DF1DE00E941EE21AE00E941EE275
:10572800DF91CF911091CF35103010E009F01FEFC5
:105738001093F8070895249710E810935D07A4E9DB
:10574800BAE01FEFE0E0F4E031960000319711F085
:105758001D93FCCF10E000E01B830A8312E00FEFDB
:105768001A930A93AC81BD8128813981E0E8BE276C
:105778003E27B31709F4A21711F008F051C0E4E965
:10578800F1E10C811D81E00FF11F10811F701A8358
:105798001A9310E01A9313E01A930E948DE423964B
:1057A8001123A1F1E4E9FEE00C811D81E00FF11F56
:1057B80010811B831038C8F40A811127A0E8B0E0D3
:1057C800E89465F80E9481E298010B811127020F85
:1057D800131F000F111FFAE0E4E9E00FF11F0C811D
:1057E8001D8108511C4F019310831B81103410E058
:1057F80009F41FEF1F931B81123410E009F41FEF07
:105808000F91102B19F010E010935D07AC81BD814A
:105818001196AC83BD83B03811F4A03009F0A4CF41
:10582800229608950881112700561C4F1A930A934F
:105838001DE000E01A930A933ED92496A4E9BEE03D
:10584800FDE1E4E120E83CE00E9474DD1091841A57
:105858001F30C9F0C0F0E4E8FAE1EF93FF93319606
:10586800FA93EA931FE01A9317EF61221FEB612264
:10587800E7EAFCEC0E9450DF1FE00881101BFF9153
:10588800EF911083239657DF24960895229710E00E
:1058980000E019830883D801B13009F4AF3E09F05C
:1058A800D0F4E8E0FFE208811981E00FF11FEF93DF
:1058B800FF93E0E5F4E0E00FF11F0E94A5DDFF9102
:1058C800EF911083A881B9811196A883B983BB236E
:1058D80019F7AA2309F717E010937D300895249744
:1058E800A4E9B8E01FEFE0E0F2E03196000031975C
:1058F80011F01D93FCCFECE0F0E0FA93EA9310E08E
:10590800108316E91A9310810881011778F1EEEBDC
:10591800F6ED0C2D1127000F111FE00FF11F01E00C
:105928000BBF079116911E830D831A930A9313E0F8
:1059380008EE1A930A9315E006ED1A930A930E944B
:10594800E3E42696112359F00D811E81085E134069
:105958001C830B83E4E9F8E0E00FF11FC082E981C2
:10596800FA81108113951083112371F62396A4E10F
:10597800B9E01CE0E4E0F0E031960000319711F066
:105988001D93FCCFA0E2B9E017E0E2E0F0E0319629
:105998000000319711F01D93FCCFA4E3B9E01CE29D
:1059A800EBE0F0E031960000319711F01D93FCCF49
:1059B800A8E6B9E01DE0E6E0F0E031960000319796
:1059C80011F01D93FCCF0895249710E0198318391E
:1059D80008F03DC0EEE3F0EE09811127E00FF11F5A
:1059E80011E01BBF1691188310910108112309F0CB
:1059F8001FEF10951F9308811FEF06FF11271095C1
:105A08000F911023F1F0EEEBF6ED09811127000F4D
:105A1800111FE00FF11F01E00BBF079116911B83C7
:105A28000A83A0E81A27133809F4083E50F0E8E082
:105A3800FFE20A811B81085E1340E00FF11F10E0AE
:105A48001083198113951983112309F0C0CF089584
:105A5800ECE0F0E0FA93EA9310E010831FE01A9369
:105A680010810881011718F1E8E5F0E31127EC0D22
:105A7800F11FEF93FF930B81A0E1B0E0E89465F884
:105A88000E9481E298010C2D1127020F131FF6E0E6
:105A9800E0EBE00FF11F0E94A5DDFF91EF9110836D
:105AA800E981FA811081139510831123D1F6239689
:105AB80018811093A23012E01093C53208952597EB
:105AC80015E50E94DFDB1AEA0E94DFDB12E00E9484
:105AD800DFDB10E000E01A83098310E000E01C839C
:105AE8000B830D811E81015010401A930A93AD81DA
:105AF800BE8128813981B31709F4A21711F008F083
:105B080046C0E4E1FDE10D811E81E00FF11FC19067
:105B18001C2D0E94DFDB2B813C810C2D1127020FED
:105B2800131F1C830B83AD81BE8120E830E0E8940D
